{
  "contractName": "FlightTickets",
  "abi": [
    {
      "constant": true,
      "inputs": [],
      "name": "purchaseIdLast",
      "outputs": [
        {
          "name": "",
          "type": "uint256"
        }
      ],
      "payable": false,
      "stateMutability": "view",
      "type": "function"
    },
    {
      "constant": true,
      "inputs": [
        {
          "name": "",
          "type": "uint256"
        }
      ],
      "name": "airlines",
      "outputs": [
        {
          "name": "aId",
          "type": "uint256"
        },
        {
          "name": "aName",
          "type": "bytes32"
        },
        {
          "name": "aOwner",
          "type": "address"
        },
        {
          "name": "aLogo",
          "type": "string"
        }
      ],
      "payable": false,
      "stateMutability": "view",
      "type": "function"
    },
    {
      "constant": false,
      "inputs": [],
      "name": "unpause",
      "outputs": [],
      "payable": false,
      "stateMutability": "nonpayable",
      "type": "function"
    },
    {
      "constant": true,
      "inputs": [
        {
          "name": "",
          "type": "uint256"
        }
      ],
      "name": "tickets",
      "outputs": [
        {
          "name": "tId",
          "type": "uint256"
        },
        {
          "name": "aId",
          "type": "uint256"
        },
        {
          "name": "tFrom",
          "type": "bytes32"
        },
        {
          "name": "tTo",
          "type": "bytes32"
        },
        {
          "name": "tPrice",
          "type": "uint256"
        },
        {
          "name": "tQuantity",
          "type": "uint256"
        },
        {
          "name": "tDeparture",
          "type": "uint256"
        },
        {
          "name": "tArrival",
          "type": "uint256"
        }
      ],
      "payable": false,
      "stateMutability": "view",
      "type": "function"
    },
    {
      "constant": true,
      "inputs": [],
      "name": "paused",
      "outputs": [
        {
          "name": "",
          "type": "bool"
        }
      ],
      "payable": false,
      "stateMutability": "view",
      "type": "function"
    },
    {
      "constant": false,
      "inputs": [],
      "name": "renounceOwnership",
      "outputs": [],
      "payable": false,
      "stateMutability": "nonpayable",
      "type": "function"
    },
    {
      "constant": false,
      "inputs": [],
      "name": "destroy",
      "outputs": [],
      "payable": false,
      "stateMutability": "nonpayable",
      "type": "function"
    },
    {
      "constant": false,
      "inputs": [],
      "name": "pause",
      "outputs": [],
      "payable": false,
      "stateMutability": "nonpayable",
      "type": "function"
    },
    {
      "constant": true,
      "inputs": [],
      "name": "owner",
      "outputs": [
        {
          "name": "",
          "type": "address"
        }
      ],
      "payable": false,
      "stateMutability": "view",
      "type": "function"
    },
    {
      "constant": true,
      "inputs": [],
      "name": "aIdLast",
      "outputs": [
        {
          "name": "",
          "type": "uint256"
        }
      ],
      "payable": false,
      "stateMutability": "view",
      "type": "function"
    },
    {
      "constant": true,
      "inputs": [],
      "name": "tIdLast",
      "outputs": [
        {
          "name": "",
          "type": "uint256"
        }
      ],
      "payable": false,
      "stateMutability": "view",
      "type": "function"
    },
    {
      "constant": false,
      "inputs": [
        {
          "name": "_newOwner",
          "type": "address"
        }
      ],
      "name": "transferOwnership",
      "outputs": [],
      "payable": false,
      "stateMutability": "nonpayable",
      "type": "function"
    },
    {
      "constant": false,
      "inputs": [
        {
          "name": "_recipient",
          "type": "address"
        }
      ],
      "name": "destroyAndSend",
      "outputs": [],
      "payable": false,
      "stateMutability": "nonpayable",
      "type": "function"
    },
    {
      "payable": true,
      "stateMutability": "payable",
      "type": "fallback"
    },
    {
      "anonymous": false,
      "inputs": [
        {
          "indexed": true,
          "name": "aId",
          "type": "uint256"
        },
        {
          "indexed": true,
          "name": "aName",
          "type": "bytes32"
        },
        {
          "indexed": false,
          "name": "aOwner",
          "type": "address"
        },
        {
          "indexed": false,
          "name": "aLogo",
          "type": "string"
        }
      ],
      "name": "LogAirlineAdded",
      "type": "event"
    },
    {
      "anonymous": false,
      "inputs": [
        {
          "indexed": true,
          "name": "aId",
          "type": "uint256"
        },
        {
          "indexed": false,
          "name": "newAName",
          "type": "bytes32"
        },
        {
          "indexed": false,
          "name": "newAOwner",
          "type": "address"
        },
        {
          "indexed": false,
          "name": "newALogo",
          "type": "string"
        }
      ],
      "name": "LogAirlineUpdated",
      "type": "event"
    },
    {
      "anonymous": false,
      "inputs": [
        {
          "indexed": true,
          "name": "aId",
          "type": "uint256"
        }
      ],
      "name": "LogAirlineRemoved",
      "type": "event"
    },
    {
      "anonymous": false,
      "inputs": [
        {
          "indexed": true,
          "name": "tId",
          "type": "uint256"
        },
        {
          "indexed": false,
          "name": "aId",
          "type": "uint256"
        },
        {
          "indexed": false,
          "name": "tFrom",
          "type": "bytes32"
        },
        {
          "indexed": false,
          "name": "tTo",
          "type": "bytes32"
        },
        {
          "indexed": false,
          "name": "tPrice",
          "type": "uint256"
        },
        {
          "indexed": false,
          "name": "tQuantity",
          "type": "uint256"
        },
        {
          "indexed": false,
          "name": "tDeparture",
          "type": "uint256"
        },
        {
          "indexed": false,
          "name": "tArrival",
          "type": "uint256"
        }
      ],
      "name": "LogTicketAdded",
      "type": "event"
    },
    {
      "anonymous": false,
      "inputs": [
        {
          "indexed": true,
          "name": "tId",
          "type": "uint256"
        },
        {
          "indexed": false,
          "name": "newTPrice",
          "type": "uint256"
        },
        {
          "indexed": false,
          "name": "newTQuantity",
          "type": "uint256"
        }
      ],
      "name": "LogTicketUpdated",
      "type": "event"
    },
    {
      "anonymous": false,
      "inputs": [
        {
          "indexed": true,
          "name": "tId",
          "type": "uint256"
        }
      ],
      "name": "LogTicketRemoved",
      "type": "event"
    },
    {
      "anonymous": false,
      "inputs": [
        {
          "indexed": true,
          "name": "purchaseId",
          "type": "uint256"
        },
        {
          "indexed": true,
          "name": "customer",
          "type": "address"
        },
        {
          "indexed": true,
          "name": "aId",
          "type": "uint256"
        },
        {
          "indexed": false,
          "name": "tId",
          "type": "uint256"
        },
        {
          "indexed": false,
          "name": "passengerFirstName",
          "type": "string"
        },
        {
          "indexed": false,
          "name": "passengerLastName",
          "type": "string"
        }
      ],
      "name": "LogTicketPurchased",
      "type": "event"
    },
    {
      "anonymous": false,
      "inputs": [],
      "name": "Pause",
      "type": "event"
    },
    {
      "anonymous": false,
      "inputs": [],
      "name": "Unpause",
      "type": "event"
    },
    {
      "anonymous": false,
      "inputs": [
        {
          "indexed": true,
          "name": "previousOwner",
          "type": "address"
        }
      ],
      "name": "OwnershipRenounced",
      "type": "event"
    },
    {
      "anonymous": false,
      "inputs": [
        {
          "indexed": true,
          "name": "previousOwner",
          "type": "address"
        },
        {
          "indexed": true,
          "name": "newOwner",
          "type": "address"
        }
      ],
      "name": "OwnershipTransferred",
      "type": "event"
    },
    {
      "constant": false,
      "inputs": [
        {
          "name": "_tIds",
          "type": "uint256[2]"
        },
        {
          "name": "_firstName",
          "type": "string"
        },
        {
          "name": "_lastName",
          "type": "string"
        }
      ],
      "name": "bookFlight",
      "outputs": [],
      "payable": true,
      "stateMutability": "payable",
      "type": "function"
    },
    {
      "constant": true,
      "inputs": [
        {
          "name": "_aName",
          "type": "bytes32"
        }
      ],
      "name": "airlineExists",
      "outputs": [
        {
          "name": "",
          "type": "bool"
        }
      ],
      "payable": false,
      "stateMutability": "view",
      "type": "function"
    },
    {
      "constant": true,
      "inputs": [],
      "name": "getAirlinesCount",
      "outputs": [
        {
          "name": "",
          "type": "uint256"
        }
      ],
      "payable": false,
      "stateMutability": "view",
      "type": "function"
    },
    {
      "constant": true,
      "inputs": [
        {
          "name": "_aId",
          "type": "uint256"
        }
      ],
      "name": "getAirlineById",
      "outputs": [
        {
          "name": "aId",
          "type": "uint256"
        },
        {
          "name": "aName",
          "type": "bytes32"
        },
        {
          "name": "aOwner",
          "type": "address"
        },
        {
          "name": "aLogo",
          "type": "string"
        }
      ],
      "payable": false,
      "stateMutability": "view",
      "type": "function"
    },
    {
      "constant": true,
      "inputs": [
        {
          "name": "_aId",
          "type": "uint256"
        }
      ],
      "name": "getTicketsCount",
      "outputs": [
        {
          "name": "",
          "type": "uint256"
        }
      ],
      "payable": false,
      "stateMutability": "view",
      "type": "function"
    },
    {
      "constant": true,
      "inputs": [
        {
          "name": "_tId",
          "type": "uint256"
        }
      ],
      "name": "getTicketById",
      "outputs": [
        {
          "name": "tId",
          "type": "uint256"
        },
        {
          "name": "aId",
          "type": "uint256"
        },
        {
          "name": "tFrom",
          "type": "bytes32"
        },
        {
          "name": "tTo",
          "type": "bytes32"
        },
        {
          "name": "tPrice",
          "type": "uint256"
        },
        {
          "name": "tQuantity",
          "type": "uint256"
        },
        {
          "name": "tDeparture",
          "type": "uint256"
        },
        {
          "name": "tArrival",
          "type": "uint256"
        }
      ],
      "payable": false,
      "stateMutability": "view",
      "type": "function"
    },
    {
      "constant": true,
      "inputs": [
        {
          "name": "_aId",
          "type": "uint256"
        },
        {
          "name": "_index",
          "type": "uint256"
        }
      ],
      "name": "getTicketByAirline",
      "outputs": [
        {
          "name": "tId",
          "type": "uint256"
        },
        {
          "name": "aId",
          "type": "uint256"
        },
        {
          "name": "tFrom",
          "type": "bytes32"
        },
        {
          "name": "tTo",
          "type": "bytes32"
        },
        {
          "name": "tPrice",
          "type": "uint256"
        },
        {
          "name": "tQuantity",
          "type": "uint256"
        },
        {
          "name": "tDeparture",
          "type": "uint256"
        },
        {
          "name": "tArrival",
          "type": "uint256"
        }
      ],
      "payable": false,
      "stateMutability": "view",
      "type": "function"
    },
    {
      "constant": true,
      "inputs": [
        {
          "name": "_from",
          "type": "bytes32"
        },
        {
          "name": "_to",
          "type": "bytes32"
        },
        {
          "name": "_when",
          "type": "uint256"
        }
      ],
      "name": "findDirectFlights",
      "outputs": [
        {
          "name": "",
          "type": "uint256[20]"
        }
      ],
      "payable": false,
      "stateMutability": "view",
      "type": "function"
    },
    {
      "constant": true,
      "inputs": [
        {
          "name": "_from",
          "type": "bytes32"
        },
        {
          "name": "_to",
          "type": "bytes32"
        },
        {
          "name": "_when",
          "type": "uint256"
        }
      ],
      "name": "findOneStopFlights",
      "outputs": [
        {
          "name": "",
          "type": "uint256[2][20]"
        }
      ],
      "payable": false,
      "stateMutability": "view",
      "type": "function"
    },
    {
      "constant": false,
      "inputs": [
        {
          "name": "_aName",
          "type": "bytes32"
        },
        {
          "name": "_aOwner",
          "type": "address"
        },
        {
          "name": "_aLogo",
          "type": "string"
        }
      ],
      "name": "addAirline",
      "outputs": [],
      "payable": false,
      "stateMutability": "nonpayable",
      "type": "function"
    },
    {
      "constant": false,
      "inputs": [
        {
          "name": "_aId",
          "type": "uint256"
        },
        {
          "name": "_newAName",
          "type": "bytes32"
        },
        {
          "name": "_newAOwner",
          "type": "address"
        },
        {
          "name": "_newALogo",
          "type": "string"
        }
      ],
      "name": "editAirline",
      "outputs": [],
      "payable": false,
      "stateMutability": "nonpayable",
      "type": "function"
    },
    {
      "constant": false,
      "inputs": [
        {
          "name": "_aId",
          "type": "uint256"
        }
      ],
      "name": "removeAirline",
      "outputs": [],
      "payable": false,
      "stateMutability": "nonpayable",
      "type": "function"
    },
    {
      "constant": false,
      "inputs": [
        {
          "name": "_aId",
          "type": "uint256"
        },
        {
          "name": "_tFrom",
          "type": "bytes32"
        },
        {
          "name": "_tTo",
          "type": "bytes32"
        },
        {
          "name": "_tPrice",
          "type": "uint256"
        },
        {
          "name": "_tQuantity",
          "type": "uint256"
        },
        {
          "name": "_tDeparture",
          "type": "uint256"
        },
        {
          "name": "_tArrival",
          "type": "uint256"
        }
      ],
      "name": "addTicket",
      "outputs": [],
      "payable": false,
      "stateMutability": "nonpayable",
      "type": "function"
    },
    {
      "constant": false,
      "inputs": [
        {
          "name": "_tId",
          "type": "uint256"
        },
        {
          "name": "_newTPrice",
          "type": "uint256"
        },
        {
          "name": "_newTQuantity",
          "type": "uint256"
        }
      ],
      "name": "editTicket",
      "outputs": [],
      "payable": false,
      "stateMutability": "nonpayable",
      "type": "function"
    },
    {
      "constant": false,
      "inputs": [
        {
          "name": "_tId",
          "type": "uint256"
        }
      ],
      "name": "removeTicket",
      "outputs": [],
      "payable": false,
      "stateMutability": "nonpayable",
      "type": "function"
    }
  ],
  "bytecode": "0x608060405260008060146101000a81548160ff021916908315150217905550336000806101000a81548173ffffffffffffffffffffffffffffffffffffffff021916908373ffffffffffffffffffffffffffffffffffffffff16021790555061452b8061006d6000396000f30060806040526004361061016a576000357c0100000000000000000000000000000000000000000000000000000000900463ffffffff16806305e931f4146101d857806306a734451461020357806311f896b51461024457806316641575146103335780632503ffa7146103db57806327b7aabc1461040657806339bd297f146104885780633a9a77ca146104c95780633f4ba83a146105b857806350b44712146105cf5780635c975abb1461065157806369625b53146106805780636d7e8e87146106c9578063715018a6146106f657806373e2187b1461070d57806383197ef0146107995780638456cb59146107b05780638da5cb5b146107c757806397af05841461081e578063a8dd0a82146108a3578063b1c1d347146108d0578063b32e526214610971578063cb1feb3c1461099c578063e6ac62b514610a6d578063e79e5fc714610a98578063ece91d3614610b09578063f2fde38b14610ba0578063f5074f4114610be3575b6040517f08c379a000000000000000000000000000000000000000000000000000000000815260040180806020018281038252601b8152602001807f506c61696e207061796d656e7473206e6f74206163636570746564000000000081525060200191505060405180910390fd5b3480156101e457600080fd5b506101ed610c26565b6040518082815260200191505060405180910390f35b34801561020f57600080fd5b5061022e60048036038101908080359060200190929190505050610c33565b6040518082815260200191505060405180910390f35b34801561025057600080fd5b5061026f60048036038101908080359060200190929190505050610ceb565b6040518085815260200184600019166000191681526020018373ffffffffffffffffffffffffffffffffffffffff1673ffffffffffffffffffffffffffffffffffffffff16815260200180602001828103825283818151815260200191508051906020019080838360005b838110156102f55780820151818401526020810190506102da565b50505050905090810190601f1680156103225780820380516001836020036101000a031916815260200191505b509550505050505060405180910390f35b34801561033f57600080fd5b5061037a6004803603810190808035600019169060200190929190803560001916906020019092919080359060200190929190505050610ea0565b604051808260146000925b818410156103cb5782846020020151600260200280838360005b838110156103ba57808201518184015260208101905061039f565b505050509050019260010192610385565b9250505091505060405180910390f35b3480156103e757600080fd5b506103f061125c565b6040518082815260200191505060405180910390f35b34801561041257600080fd5b5061043160048036038101908080359060200190929190505050611262565b60405180898152602001888152602001876000191660001916815260200186600019166000191681526020018581526020018481526020018381526020018281526020019850505050505050505060405180910390f35b34801561049457600080fd5b506104c7600480360381019080803590602001909291908035906020019092919080359060200190929190505050611381565b005b3480156104d557600080fd5b506104f4600480360381019080803590602001909291905050506116b8565b6040518085815260200184600019166000191681526020018373ffffffffffffffffffffffffffffffffffffffff1673ffffffffffffffffffffffffffffffffffffffff16815260200180602001828103825283818151815260200191508051906020019080838360005b8381101561057a57808201518184015260208101905061055f565b50505050905090810190601f1680156105a75780820380516001836020036101000a031916815260200191505b509550505050505060405180910390f35b3480156105c457600080fd5b506105cd6117af565b005b3480156105db57600080fd5b506105fa6004803603810190808035906020019092919050505061186d565b60405180898152602001888152602001876000191660001916815260200186600019166000191681526020018581526020018481526020018381526020018281526020019850505050505050505060405180910390f35b34801561065d57600080fd5b506106666118c4565b604051808215151515815260200191505060405180910390f35b34801561068c57600080fd5b506106af60048036038101908080356000191690602001909291905050506118d7565b604051808215151515815260200191505060405180910390f35b3480156106d557600080fd5b506106f460048036038101908080359060200190929190505050611909565b005b34801561070257600080fd5b5061070b611c32565b005b34801561071957600080fd5b506107426004803603810190808035906020019092919080359060200190929190505050611d34565b60405180898152602001888152602001876000191660001916815260200186600019166000191681526020018581526020018481526020018381526020018281526020019850505050505050505060405180910390f35b3480156107a557600080fd5b506107ae611d96565b005b3480156107bc57600080fd5b506107c5611e2b565b005b3480156107d357600080fd5b506107dc611eeb565b604051808273ffffffffffffffffffffffffffffffffffffffff1673ffffffffffffffffffffffffffffffffffffffff16815260200191505060405180910390f35b34801561082a57600080fd5b506108656004803603810190808035600019169060200190929190803560001916906020019092919080359060200190929190505050611f10565b6040518082601460200280838360005b83811015610890578082015181840152602081019050610875565b5050505090500191505060405180910390f35b3480156108af57600080fd5b506108ce60048036038101908080359060200190929190505050611ff4565b005b3480156108dc57600080fd5b5061096f600480360381019080803590602001909291908035600019169060200190929190803573ffffffffffffffffffffffffffffffffffffffff169060200190929190803590602001908201803590602001908080601f01602080910402602001604051908101604052809392919081815260200183838082843782019150505050505091929192905050506125a2565b005b34801561097d57600080fd5b506109866129cf565b6040518082815260200191505060405180910390f35b610a6b6004803603810190808060400190600280602002604051908101604052809291908260026020028082843782019150505050509192919290803590602001908201803590602001908080601f0160208091040260200160405190810160405280939291908181526020018383808284378201915050505050509192919290803590602001908201803590602001908080601f01602080910402602001604051908101604052809392919081815260200183838082843782019150505050505091929192905050506129d5565b005b348015610a7957600080fd5b50610a8261358f565b6040518082815260200191505060405180910390f35b348015610aa457600080fd5b50610b07600480360381019080803590602001909291908035600019169060200190929190803560001916906020019092919080359060200190929190803590602001909291908035906020019092919080359060200190929190505050613595565b005b348015610b1557600080fd5b50610b9e6004803603810190808035600019169060200190929190803573ffffffffffffffffffffffffffffffffffffffff169060200190929190803590602001908201803590602001908080601f0160208091040260200160405190810160405280939291908181526020018383808284378201915050505050509192919290505050613b28565b005b348015610bac57600080fd5b50610be1600480360381019080803573ffffffffffffffffffffffffffffffffffffffff169060200190929190505050613e87565b005b348015610bef57600080fd5b50610c24600480360381019080803573ffffffffffffffffffffffffffffffffffffffff169060200190929190505050613eee565b005b6000600180549050905090565b60006003600083815260200190815260200160002060000160009054906101000a900460ff161515610ccd576040517f08c379a00000000000000000000000000000000000000000000000000000000081526004018080602001828103825260168152602001807f4169726c696e6520646f6573206e6f742065786973740000000000000000000081525060200191505060405180910390fd5b60086000838152602001908152602001600020805490509050919050565b6000806000606060006003600087815260200190815260200160002060000160009054906101000a900460ff161515610d8c576040517f08c379a00000000000000000000000000000000000000000000000000000000081526004018080602001828103825260168152602001807f4169726c696e6520646f6573206e6f742065786973740000000000000000000081525060200191505060405180910390fd5b60016003600088815260200190815260200160002060010154815481101515610db157fe5b90600052602060002090600402019050806000015481600101548260020160009054906101000a900473ffffffffffffffffffffffffffffffffffffffff1683600301808054600181600116156101000203166002900480601f016020809104026020016040519081016040528092919081815260200182805460018160011615610100020316600290048015610e895780601f10610e5e57610100808354040283529160200191610e89565b820191906000526020600020905b815481529060010190602001808311610e6c57829003601f168201915b505050505090509450945094509450509193509193565b610ea8614078565b610eb0614078565b6000610eba6140a7565b6000610ec46140a7565b600080600080600097506000955060009350600092505b6005805490508310156110ec57600583815481101515610ef757fe5b906000526020600020906008020191508c60001916826002015460001916148015610f2657508a826006015410155b8015610f3a5750620151808b018260060154105b1561101a578161010060405190810160405290816000820154815260200160018201548152602001600282015460001916600019168152602001600382015460001916600019168152602001600482015481526020016005820154815260200160068201548152602001600782015481525050878780600101985061040081101515610fc257fe5b60200201819052508b6000191682600301546000191614156110155760408051908101604052808360000154815260200160008152508989806001019a5060148110151561100c57fe5b60200201819052505b6110df565b8b6000191682600301546000191614801561103957508a826006015410155b801561104d57506202a3008b018260060154105b156110de5781610100604051908101604052908160008201548152602001600182015481526020016002820154600019166000191681526020016003820154600019166000191681526020016004820154815260200160058201548152602001600682015481526020016007820154815250508585806001019650610400811015156110d557fe5b60200201819052505b5b8280600101935050610edb565b600092505b61040083101561124957600087846104008110151561110c57fe5b602002015160000151141561112057611249565b600090505b61040081101561123c57600085826104008110151561114057fe5b60200201516000015114156111545761123c565b86836104008110151561116357fe5b6020020151606001516000191685826104008110151561117f57fe5b602002015160400151600019161480156111ca5750610e108784610400811015156111a657fe5b602002015160e00151018582610400811015156111bf57fe5b602002015160c00151115b1561122f5760408051908101604052808885610400811015156111e957fe5b602002015160000151815260200186836104008110151561120657fe5b6020020151600001518152508989806001019a5060148110151561122657fe5b60200201819052505b8080600101915050611125565b82806001019350506110f1565b8899505050505050505050509392505050565b600a5481565b6000806000806000806000806000600760008b815260200190815260200160002060000160009054906101000a900460ff161515611308576040517f08c379a00000000000000000000000000000000000000000000000000000000081526004018080602001828103825260158152602001807f5469636b657420646f6573206e6f74206578697374000000000000000000000081525060200191505060405180910390fd5b6005600760008c81526020019081526020016000206001015481548110151561132d57fe5b90600052602060002090600802019050806000015481600101548260020154836003015484600401548560050154866006015487600701549850985098509850985098509850985050919395975091939597565b6000836000806007600084815260200190815260200160002060000160009054906101000a900460ff16151561141f576040517f08c379a00000000000000000000000000000000000000000000000000000000081526004018080602001828103825260158152602001807f5469636b657420646f6573206e6f74206578697374000000000000000000000081525060200191505060405180910390fd5b6005600760008581526020019081526020016000206001015481548110151561144457fe5b90600052602060002090600802019150600360008360010154815260200190815260200160002060000160009054906101000a900460ff1615156114f0576040517f08c379a000000000000000000000000000000000000000000000000000000000815260040180806020018281038252601e8152602001807f4169726c696e6520646f6573206e6f7420657869737420616e796d6f7265000081525060200191505060405180910390fd5b600160036000846001015481526020019081526020016000206001015481548110151561151957fe5b906000526020600020906004020190503373ffffffffffffffffffffffffffffffffffffffff168160020160009054906101000a900473ffffffffffffffffffffffffffffffffffffffff1673ffffffffffffffffffffffffffffffffffffffff161415156115f0576040517f08c379a00000000000000000000000000000000000000000000000000000000081526004018080602001828103825260148152602001807f4e6f7420746865207469636b6574206f776e657200000000000000000000000081525060200191505060405180910390fd5b600060149054906101000a900460ff1615151561160c57600080fd5b600760008881526020019081526020016000206001015493508560058581548110151561163557fe5b9060005260206000209060080201600401819055508460058581548110151561165a57fe5b906000526020600020906008020160050181905550867f117b781dfc62e02af3f4eedfa1f5dc095539c4c2b20d67e355d51d9facc52c478787604051808381526020018281526020019250505060405180910390a250505050505050565b6001818154811015156116c757fe5b90600052602060002090600402016000915090508060000154908060010154908060020160009054906101000a900473ffffffffffffffffffffffffffffffffffffffff1690806003018054600181600116156101000203166002900480601f0160208091040260200160405190810160405280929190818152602001828054600181600116156101000203166002900480156117a55780601f1061177a576101008083540402835291602001916117a5565b820191906000526020600020905b81548152906001019060200180831161178857829003601f168201915b5050505050905084565b6000809054906101000a900473ffffffffffffffffffffffffffffffffffffffff1673ffffffffffffffffffffffffffffffffffffffff163373ffffffffffffffffffffffffffffffffffffffff1614151561180a57600080fd5b600060149054906101000a900460ff16151561182557600080fd5b60008060146101000a81548160ff0219169083151502179055507f7805862f689e2f13df9f062ff482ad3ad112aca9e0847911ed832e158c525b3360405160405180910390a1565b60058181548110151561187c57fe5b90600052602060002090600802016000915090508060000154908060010154908060020154908060030154908060040154908060050154908060060154908060070154905088565b600060149054906101000a900460ff1681565b600060046000836000191660001916815260200190815260200160002060009054906101000a900460ff169050919050565b60008060009054906101000a900473ffffffffffffffffffffffffffffffffffffffff1673ffffffffffffffffffffffffffffffffffffffff163373ffffffffffffffffffffffffffffffffffffffff1614151561196657600080fd5b600060149054906101000a900460ff1615151561198257600080fd5b6003600083815260200190815260200160002060000160009054906101000a900460ff161515611a1a576040517f08c379a00000000000000000000000000000000000000000000000000000000081526004018080602001828103825260168152602001807f4169726c696e6520646f6573206e6f742065786973740000000000000000000081525060200191505060405180910390fd5b6003600083815260200190815260200160002060010154905060006003600084815260200190815260200160002060000160006101000a81548160ff021916908315150217905550600060046000600184815481101515611a7757fe5b9060005260206000209060040201600101546000191660001916815260200190815260200160002060006101000a81548160ff021916908315150217905550600180805490501115611beb57600180808054905003815481101515611ad857fe5b9060005260206000209060040201600182815481101515611af557fe5b906000526020600020906004020160008201548160000155600182015481600101906000191690556002820160009054906101000a900473ffffffffffffffffffffffffffffffffffffffff168160020160006101000a81548173ffffffffffffffffffffffffffffffffffffffff021916908373ffffffffffffffffffffffffffffffffffffffff16021790555060038201816003019080546001816001161561010002031660029004611bab9291906140d8565b509050508060036000600184815481101515611bc357fe5b9060005260206000209060040201600001548152602001908152602001600020600101819055505b6001805480919060019003611c00919061415f565b50817f097fbf29250ae062ac9f3d976905bb99b8d705a7908c91106936a1b7f96994cd60405160405180910390a25050565b6000809054906101000a900473ffffffffffffffffffffffffffffffffffffffff1673ffffffffffffffffffffffffffffffffffffffff163373ffffffffffffffffffffffffffffffffffffffff16141515611c8d57600080fd5b6000809054906101000a900473ffffffffffffffffffffffffffffffffffffffff1673ffffffffffffffffffffffffffffffffffffffff167ff8df31144d9c2f0f6b59d69b8b98abd5459d07f2742c4df920b25aae33c6482060405160405180910390a260008060006101000a81548173ffffffffffffffffffffffffffffffffffffffff021916908373ffffffffffffffffffffffffffffffffffffffff160217905550565b6000806000806000806000806000600860008c81526020019081526020016000208a815481101515611d6257fe5b90600052602060002001549050611d7881611262565b98509850985098509850985098509850509295985092959890939650565b6000809054906101000a900473ffffffffffffffffffffffffffffffffffffffff1673ffffffffffffffffffffffffffffffffffffffff163373ffffffffffffffffffffffffffffffffffffffff16141515611df157600080fd5b6000809054906101000a900473ffffffffffffffffffffffffffffffffffffffff1673ffffffffffffffffffffffffffffffffffffffff16ff5b6000809054906101000a900473ffffffffffffffffffffffffffffffffffffffff1673ffffffffffffffffffffffffffffffffffffffff163373ffffffffffffffffffffffffffffffffffffffff16141515611e8657600080fd5b600060149054906101000a900460ff16151515611ea257600080fd5b6001600060146101000a81548160ff0219169083151502179055507f6985a02210a168e66602d3235cb6db0e70f92b3ba4d376a33c0f3d9434bff62560405160405180910390a1565b6000809054906101000a900473ffffffffffffffffffffffffffffffffffffffff1681565b611f18614191565b611f20614191565b6000806000809250600091505b600580549050821015611fe657600582815481101515611f4957fe5b906000526020600020906008020190508760001916816002015460001916148015611f7f57508660001916816003015460001916145b8015611f8f575085816006015410155b8015611fa357506201518086018160060154105b15611fd95780600001548484806001019550601481101515611fc157fe5b6020020181815250506014831415611fd857611fe6565b5b8180600101925050611f2d565b839450505050509392505050565b600080600080846000806007600084815260200190815260200160002060000160009054906101000a900460ff161515612096576040517f08c379a00000000000000000000000000000000000000000000000000000000081526004018080602001828103825260158152602001807f5469636b657420646f6573206e6f74206578697374000000000000000000000081525060200191505060405180910390fd5b600560076000858152602001908152602001600020600101548154811015156120bb57fe5b90600052602060002090600802019150600360008360010154815260200190815260200160002060000160009054906101000a900460ff161515612167576040517f08c379a000000000000000000000000000000000000000000000000000000000815260040180806020018281038252601e8152602001807f4169726c696e6520646f6573206e6f7420657869737420616e796d6f7265000081525060200191505060405180910390fd5b600160036000846001015481526020019081526020016000206001015481548110151561219057fe5b906000526020600020906004020190503373ffffffffffffffffffffffffffffffffffffffff168160020160009054906101000a900473ffffffffffffffffffffffffffffffffffffffff1673ffffffffffffffffffffffffffffffffffffffff16141515612267576040517f08c379a00000000000000000000000000000000000000000000000000000000081526004018080602001828103825260148152602001807f4e6f7420746865207469636b6574206f776e657200000000000000000000000081525060200191505060405180910390fd5b600060149054906101000a900460ff1615151561228357600080fd5b60058681548110151561229257fe5b90600052602060002090600802016001015496506000600760008a815260200190815260200160002060000160006101000a81548160ff021916908315150217905550600160058054905011156123d95760076000898152602001908152602001600020600101549550600560016005805490500381548110151561231357fe5b906000526020600020906008020160058781548110151561233057fe5b9060005260206000209060080201600082015481600001556001820154816001015560028201548160020190600019169055600382015481600301906000191690556004820154816004015560058201548160050155600682015481600601556007820154816007015590505085600760006005898154811015156123b157fe5b9060005260206000209060080201600001548152602001908152602001600020600101819055505b60006009600089815260200190815260200160002060008a815260200190815260200160002060000160006101000a81548160ff02191690831515021790555060016008600089815260200190815260200160002080549050111561252e57600960008881526020019081526020016000206000898152602001908152602001600020600101549450600860008881526020019081526020016000206001600860008a8152602001908152602001600020805490500381548110151561249b57fe5b906000526020600020015460086000898152602001908152602001600020868154811015156124c657fe5b906000526020600020018190555060086000888152602001908152602001600020858154811015156124f457fe5b9060005260206000200154935084600960008981526020019081526020016000206000868152602001908152602001600020600101819055505b6008600088815260200190815260200160002080548091906001900361255491906141b5565b50600580548091906001900361256a91906141e1565b50877f93a8a929d761b5c680260cbac407d9a554c2975f3cb21e1cf845a7d6028fd48260405160405180910390a25050505050505050565b60008060009054906101000a900473ffffffffffffffffffffffffffffffffffffffff1673ffffffffffffffffffffffffffffffffffffffff163373ffffffffffffffffffffffffffffffffffffffff161415156125ff57600080fd5b600060149054906101000a900460ff1615151561261b57600080fd5b6003600086815260200190815260200160002060000160009054906101000a900460ff1615156126b3576040517f08c379a00000000000000000000000000000000000000000000000000000000081526004018080602001828103825260168152602001807f4169726c696e6520646f6573206e6f742065786973740000000000000000000081525060200191505060405180910390fd5b600360008681526020019081526020016000206001015490506001818154811015156126db57fe5b90600052602060002090600402016001015460001916846000191614151561285357612706846118d7565b1515156127a1576040517f08c379a00000000000000000000000000000000000000000000000000000000081526004018080602001828103825260218152602001807f4e6577206169726c696e65206e616d6520697320616c72656164792074616b6581526020017f6e0000000000000000000000000000000000000000000000000000000000000081525060400191505060405180910390fd5b6000600460006001848154811015156127b657fe5b9060005260206000209060040201600101546000191660001916815260200190815260200160002060006101000a81548160ff021916908315150217905550600160046000866000191660001916815260200190815260200160002060006101000a81548160ff0219169083151502179055508360018281548110151561283957fe5b906000526020600020906004020160010181600019169055505b8260018281548110151561286357fe5b906000526020600020906004020160020160006101000a81548173ffffffffffffffffffffffffffffffffffffffff021916908373ffffffffffffffffffffffffffffffffffffffff160217905550816001828154811015156128c257fe5b906000526020600020906004020160030190805190602001906128e6929190614213565b50847f8f5fd276f298924f04bfde2ca3cd5d46c684e0024e84742ed86df39bc8b7371d8585856040518084600019166000191681526020018373ffffffffffffffffffffffffffffffffffffffff1673ffffffffffffffffffffffffffffffffffffffff16815260200180602001828103825283818151815260200191508051906020019080838360005b8381101561298c578082015181840152602081019050612971565b50505050905090810190601f1680156129b95780820380516001836020036101000a031916815260200191505b5094505050505060405180910390a25050505050565b60025481565b600080600080600080600080600060149054906101000a900460ff161515156129fd57600080fd5b600760008c6000600281101515612a1057fe5b6020020151815260200190815260200160002060000160009054906101000a900460ff161515612aa8576040517f08c379a00000000000000000000000000000000000000000000000000000000081526004018080602001828103825260158152602001807f5469636b657420646f6573206e6f74206578697374000000000000000000000081525060200191505060405180910390fd5b6005600760008d6000600281101515612abd57fe5b6020020151815260200190815260200160002060010154815481101515612ae057fe5b90600052602060002090600802019750600360008960010154815260200190815260200160002060000160009054906101000a900460ff161515612b8c576040517f08c379a00000000000000000000000000000000000000000000000000000000081526004018080602001828103825260168152602001807f4169726c696e6520646f6573206e6f742065786973740000000000000000000081525060200191505060405180910390fd5b6001600360008a60010154815260200190815260200160002060010154815481101515612bb557fe5b9060005260206000209060040201965060008860050154111515612c41576040517f08c379a00000000000000000000000000000000000000000000000000000000081526004018080602001828103825260128152602001807f4e6f20736561747320617661696c61626c65000000000000000000000000000081525060200191505060405180910390fd5b87600401543410151515612cbd576040517f08c379a00000000000000000000000000000000000000000000000000000000081526004018080602001828103825260128152602001807f496e73756666696369656e742066756e6473000000000000000000000000000081525060200191505060405180910390fd5b87600401543403955060008b6001600281101515612cd757fe5b602002015114151561335b57600760008c6001600281101515612cf657fe5b6020020151815260200190815260200160002060000160009054906101000a900460ff161515612d8e576040517f08c379a00000000000000000000000000000000000000000000000000000000081526004018080602001828103825260158152602001807f5469636b657420646f6573206e6f74206578697374000000000000000000000081525060200191505060405180910390fd5b6005600760008d6001600281101515612da357fe5b6020020151815260200190815260200160002060010154815481101515612dc657fe5b9060005260206000209060080201945084600401548610151515612e52576040517f08c379a00000000000000000000000000000000000000000000000000000000081526004018080602001828103825260128152602001807f496e73756666696369656e742066756e6473000000000000000000000000000081525060200191505060405180910390fd5b84600401548603955060008560050154111515612ed7576040517f08c379a00000000000000000000000000000000000000000000000000000000081526004018080602001828103825260128152602001807f4e6f20736561747320617661696c61626c65000000000000000000000000000081525060200191505060405180910390fd5b600360008660010154815260200190815260200160002060000160009054906101000a900460ff161515612f73576040517f08c379a00000000000000000000000000000000000000000000000000000000081526004018080602001828103825260168152602001807f4169726c696e6520646f6573206e6f742065786973740000000000000000000081525060200191505060405180910390fd5b6001600360008760010154815260200190815260200160002060010154815481101515612f9c57fe5b90600052602060002090600402019350876005016000815480929190600190039190505550846005016000815480929190600190039190505550612fec6001600a54613f6290919063ffffffff16565b925082600a8190555086600001543373ffffffffffffffffffffffffffffffffffffffff16847f0974b473dc8fe83496ecbf5b1f0fc4cf2cf7c75b89e2d57cb58515c42c34bb898b600001548e8e604051808481526020018060200180602001838103835285818151815260200191508051906020019080838360005b83811015613084578082015181840152602081019050613069565b50505050905090810190601f1680156130b15780820380516001836020036101000a031916815260200191505b50838103825284818151815260200191508051906020019080838360005b838110156130ea5780820151818401526020810190506130cf565b50505050905090810190601f1680156131175780820380516001836020036101000a031916815260200191505b509550505050505060405180910390a461313d6001600a54613f6290919063ffffffff16565b915081600a8190555083600001543373ffffffffffffffffffffffffffffffffffffffff16837f0974b473dc8fe83496ecbf5b1f0fc4cf2cf7c75b89e2d57cb58515c42c34bb8988600001548e8e604051808481526020018060200180602001838103835285818151815260200191508051906020019080838360005b838110156131d55780820151818401526020810190506131ba565b50505050905090810190601f1680156132025780820380516001836020036101000a031916815260200191505b50838103825284818151815260200191508051906020019080838360005b8381101561323b578082015181840152602081019050613220565b50505050905090810190601f1680156132685780820380516001836020036101000a031916815260200191505b509550505050505060405180910390a48660020160009054906101000a900473ffffffffffffffffffffffffffffffffffffffff1673ffffffffffffffffffffffffffffffffffffffff166108fc89600401549081150290604051600060405180830381858888f193505050501580156132e6573d6000803e3d6000fd5b508360020160009054906101000a900473ffffffffffffffffffffffffffffffffffffffff1673ffffffffffffffffffffffffffffffffffffffff166108fc86600401549081150290604051600060405180830381858888f19350505050158015613355573d6000803e3d6000fd5b50613531565b8760050160008154809291906001900391905055506133866001600a54613f6290919063ffffffff16565b905080600a8190555086600001543373ffffffffffffffffffffffffffffffffffffffff16827f0974b473dc8fe83496ecbf5b1f0fc4cf2cf7c75b89e2d57cb58515c42c34bb898b600001548e8e604051808481526020018060200180602001838103835285818151815260200191508051906020019080838360005b8381101561341e578082015181840152602081019050613403565b50505050905090810190601f16801561344b5780820380516001836020036101000a031916815260200191505b50838103825284818151815260200191508051906020019080838360005b83811015613484578082015181840152602081019050613469565b50505050905090810190601f1680156134b15780820380516001836020036101000a031916815260200191505b509550505050505060405180910390a48660020160009054906101000a900473ffffffffffffffffffffffffffffffffffffffff1673ffffffffffffffffffffffffffffffffffffffff166108fc89600401549081150290604051600060405180830381858888f1935050505015801561352f573d6000803e3d6000fd5b505b6000861115613582573373ffffffffffffffffffffffffffffffffffffffff166108fc879081150290604051600060405180830381858888f19350505050158015613580573d6000803e3d6000fd5b505b5050505050505050505050565b60065481565b600061359f614293565b6000808a6003600082815260200190815260200160002060000160009054906101000a900460ff16151561363b576040517f08c379a00000000000000000000000000000000000000000000000000000000081526004018080602001828103825260168152602001807f4169726c696e6520646f6573206e6f742065786973740000000000000000000081525060200191505060405180910390fd5b3373ffffffffffffffffffffffffffffffffffffffff166001600360008481526020019081526020016000206001015481548110151561367757fe5b906000526020600020906004020160020160009054906101000a900473ffffffffffffffffffffffffffffffffffffffff1673ffffffffffffffffffffffffffffffffffffffff16141515613734576040517f08c379a00000000000000000000000000000000000000000000000000000000081526004018080602001828103825260158152602001807f4e6f7420746865206169726c696e65206f776e6572000000000000000000000081525060200191505060405180910390fd5b600060149054906101000a900460ff1615151561375057600080fd5b6000881115156137c8576040517f08c379a00000000000000000000000000000000000000000000000000000000081526004018080602001828103825260198152602001807f5175616e74697479206d75737420626520706f7369746976650000000000000081525060200191505060405180910390fd5b428711151561383f576040517f08c379a000000000000000000000000000000000000000000000000000000000815260040180806020018281038252601d8152602001807f4465706172747572652074696d6520697320696e20746865207061737400000081525060200191505060405180910390fd5b86861115156138b6576040517f08c379a00000000000000000000000000000000000000000000000000000000081526004018080602001828103825260208152602001807f4172726976616c2074696d65206973206265666f72652064657061727475726581525060200191505060405180910390fd5b6138cc6001600654613f6290919063ffffffff16565b945084600681905550610100604051908101604052808681526020018d81526020018c6000191681526020018b6000191681526020018a8152602001898152602001888152602001878152509350600160058590806001815401808255809150509060018203906000526020600020906008020160009091929091909150600082015181600001556020820151816001015560408201518160020190600019169055606082015181600301906000191690556080820151816004015560a0820151816005015560c0820151816006015560e08201518160070155505003925060016007600087815260200190815260200160002060000160006101000a81548160ff0219169083151502179055508260076000878152602001908152602001600020600101819055506001600860008e815260200190815260200160002086908060018154018082558091505090600182039060005260206000200160009091929091909150550391506001600960008e8152602001908152602001600020600087815260200190815260200160002060000160006101000a81548160ff02191690831515021790555081600960008e8152602001908152602001600020600087815260200190815260200160002060010181905550847fd18bcbeab467174da522ecf26e725defd77670eee9d635481e2455ef7297b4478d8d8d8d8d8d8d604051808881526020018760001916600019168152602001866000191660001916815260200185815260200184815260200183815260200182815260200197505050505050505060405180910390a2505050505050505050505050565b6000806000809054906101000a900473ffffffffffffffffffffffffffffffffffffffff1673ffffffffffffffffffffffffffffffffffffffff163373ffffffffffffffffffffffffffffffffffffffff16141515613b8657600080fd5b600060149054906101000a900460ff16151515613ba257600080fd5b613bab856118d7565b151515613c20576040517f08c379a000000000000000000000000000000000000000000000000000000000815260040180806020018281038252601d8152602001807f4169726c696e65206e616d6520697320616c72656164792074616b656e00000081525060200191505060405180910390fd5b613c366001600254613f6290919063ffffffff16565b915081600281905550600180608060405190810160405280858152602001886000191681526020018773ffffffffffffffffffffffffffffffffffffffff1681526020018681525090806001815401808255809150509060018203906000526020600020906004020160009091929091909150600082015181600001556020820151816001019060001916905560408201518160020160006101000a81548173ffffffffffffffffffffffffffffffffffffffff021916908373ffffffffffffffffffffffffffffffffffffffff1602179055506060820151816003019080519060200190613d269291906142df565b50505003905060016003600084815260200190815260200160002060000160006101000a81548160ff021916908315150217905550806003600084815260200190815260200160002060010181905550600160046000876000191660001916815260200190815260200160002060006101000a81548160ff0219169083151502179055508460001916827f1fb89763f97f7831276be6e21d7e967da8a7aac4dc610d01db9d343477050abe8686604051808373ffffffffffffffffffffffffffffffffffffffff1673ffffffffffffffffffffffffffffffffffffffff16815260200180602001828103825283818151815260200191508051906020019080838360005b83811015613e45578082015181840152602081019050613e2a565b50505050905090810190601f168015613e725780820380516001836020036101000a031916815260200191505b50935050505060405180910390a35050505050565b6000809054906101000a900473ffffffffffffffffffffffffffffffffffffffff1673ffffffffffffffffffffffffffffffffffffffff163373ffffffffffffffffffffffffffffffffffffffff16141515613ee257600080fd5b613eeb81613f7e565b50565b6000809054906101000a900473ffffffffffffffffffffffffffffffffffffffff1673ffffffffffffffffffffffffffffffffffffffff163373ffffffffffffffffffffffffffffffffffffffff16141515613f4957600080fd5b8073ffffffffffffffffffffffffffffffffffffffff16ff5b60008183019050828110151515613f7557fe5b80905092915050565b600073ffffffffffffffffffffffffffffffffffffffff168173ffffffffffffffffffffffffffffffffffffffff1614151515613fba57600080fd5b8073ffffffffffffffffffffffffffffffffffffffff166000809054906101000a900473ffffffffffffffffffffffffffffffffffffffff1673ffffffffffffffffffffffffffffffffffffffff167f8be0079c531659141344cd1fd0a4f28419497f9722a3daafe3b4186f6b6457e060405160405180910390a3806000806101000a81548173ffffffffffffffffffffffffffffffffffffffff021916908373ffffffffffffffffffffffffffffffffffffffff16021790555050565b610500604051908101604052806014905b61409161435f565b8152602001906001900390816140895790505090565b6204000060405190810160405280610400905b6140c2614381565b8152602001906001900390816140ba5790505090565b828054600181600116156101000203166002900490600052602060002090601f016020900481019282601f10614111578054855561414e565b8280016001018555821561414e57600052602060002091601f016020900482015b8281111561414d578254825591600101919060010190614132565b5b50905061415b91906143cd565b5090565b81548183558181111561418c5760040281600402836000526020600020918201910161418b91906143f2565b5b505050565b61028060405190810160405280601490602082028038833980820191505090505090565b8154818355818111156141dc578183600052602060002091820191016141db91906143cd565b5b505050565b81548183558181111561420e5760080281600802836000526020600020918201910161420d9190614458565b5b505050565b828054600181600116156101000203166002900490600052602060002090601f016020900481019282601f1061425457805160ff1916838001178555614282565b82800160010185558215614282579182015b82811115614281578251825591602001919060010190614266565b5b50905061428f91906143cd565b5090565b6101006040519081016040528060008152602001600081526020016000801916815260200160008019168152602001600081526020016000815260200160008152602001600081525090565b828054600181600116156101000203166002900490600052602060002090601f016020900481019282601f1061432057805160ff191683800117855561434e565b8280016001018555821561434e579182015b8281111561434d578251825591602001919060010190614332565b5b50905061435b91906143cd565b5090565b6040805190810160405280600290602082028038833980820191505090505090565b6101006040519081016040528060008152602001600081526020016000801916815260200160008019168152602001600081526020016000815260200160008152602001600081525090565b6143ef91905b808211156143eb5760008160009055506001016143d3565b5090565b90565b61445591905b808211156144515760008082016000905560018201600090556002820160006101000a81549073ffffffffffffffffffffffffffffffffffffffff021916905560038201600061444891906144b7565b506004016143f8565b5090565b90565b6144b491905b808211156144b05760008082016000905560018201600090556002820160009055600382016000905560048201600090556005820160009055600682016000905560078201600090555060080161445e565b5090565b90565b50805460018160011615610100020316600290046000825580601f106144dd57506144fc565b601f0160209004906000526020600020908101906144fb91906143cd565b5b505600a165627a7a72305820483f38eee274b7dcedfa451b4e9b3a777da4023f88f2d1abc87132461c62d0100029",
  "source": "pragma solidity ^0.4.24;\n\nimport \"../installed_contracts/zeppelin/contracts/math/SafeMath.sol\";\nimport \"../installed_contracts/zeppelin/contracts/lifecycle/Pausable.sol\";\nimport \"../installed_contracts/zeppelin/contracts/lifecycle/Destructible.sol\";\n\n/**\n * @title Flight tickets marketplace for customers and airlines\n * @author Roman Vinogradov <dev.romanv@gmail.com>\n */\ncontract FlightTickets is Pausable, Destructible {\n\n  // SafeMath is a library that allows overflow-safe arithmetic operations\n  // Used like this: a.add(b) or a.mul(b) where a & b are uint256\n  using SafeMath for uint256;\n\n  struct Airline {\n    // Unique autoincremented ID\n    uint256 aId;\n    // Unique airline name\n    bytes32 aName;\n    // Ethereum address of the owner who will manage this airline\n    address aOwner;\n    // IPFS hash of the airline logo image\n    string aLogo;\n  }\n\n  struct Ticket {\n    // Unique autoincremented ID\n    uint256 tId;\n    // ID of the airline that provides this ticket\n    uint256 aId;\n    // From and To, cities connected by the flight\n    bytes32 tFrom;\n    bytes32 tTo;\n    // Ticket price in wei\n    uint256 tPrice;\n    // Number of seats available at this price\n    uint256 tQuantity;\n    // Timestamps of planned departure and arrival, UTC\n    uint256 tDeparture;\n    uint256 tArrival;\n  }\n\n  // Auxiliary entity to keep a reference to a particular entry in an array\n  struct ArrayIndex {\n    bool exists;\n    uint256 index;\n  }\n\n  // Storage of airlines\n  Airline[] public airlines;  // The list of airlines\n  uint256 public aIdLast;  // Last airline ID generated, used for autoincrementing\n  mapping(uint256 => ArrayIndex) private airlineIdIndex;  // Index to find Airline by its ID\n  mapping(bytes32 => bool) private airlineNameExists;  // To keep track of which airline names are taken\n\n  // Storage of tickets\n  Ticket[] public tickets;  // The list of tickets\n  uint256 public tIdLast;  // Last ticket ID generated, used for autoincrementing\n  mapping(uint256 => ArrayIndex) private ticketIdIndex;  // Index to find Ticket by its ID\n  mapping(uint256 => uint256[]) private ticketsByAirline;  // To find list of Ticket IDs by their Airline ID\n  // The following is a two-dimensional index to find a certain entry in an array ticketsByAirline[aId]\n  mapping(uint256 => mapping(uint256 => ArrayIndex)) private ticketsByAirlineIndex;\n\n  uint256 public purchaseIdLast;\n\n  // When an airline in the list is added, changed or deleted\n  event LogAirlineAdded(uint256 indexed aId, bytes32 indexed aName, address aOwner, string aLogo);\n  event LogAirlineUpdated(uint256 indexed aId, bytes32 newAName, address newAOwner, string newALogo);\n  event LogAirlineRemoved(uint256 indexed aId);\n  // When a ticket is added, changed or deleted\n  event LogTicketAdded(\n    uint256 indexed tId,\n    uint256 aId,\n    bytes32 tFrom,\n    bytes32 tTo,\n    uint256 tPrice,\n    uint256 tQuantity,\n    uint256 tDeparture,\n    uint256 tArrival\n  );\n  event LogTicketUpdated(uint256 indexed tId, uint256 newTPrice, uint256 newTQuantity);\n  event LogTicketRemoved(uint256 indexed tId);\n  // When a ticket is bought\n  event LogTicketPurchased(\n    uint256 indexed purchaseId,\n    address indexed customer,\n    uint256 indexed aId,\n    uint256 tId,\n    string passengerFirstName,\n    string passengerLastName\n  );\n\n  /**\n   * @dev Make sure the caller is the owner of the airline\n   * @param _aId The airline ID\n   */\n  modifier onlyAirlineOwner(uint256 _aId) {\n    require(airlineIdIndex[_aId].exists, \"Airline does not exist\");\n    require(airlines[airlineIdIndex[_aId].index].aOwner == msg.sender, \"Not the airline owner\");\n    _;\n  }\n\n  /**\n   * @dev Make sure the caller is the owner of the ticket\n   * @param _tId The ticket ID\n   */\n  modifier onlyTicketOwner(uint256 _tId) {\n    // find the ticket\n    require(ticketIdIndex[_tId].exists, \"Ticket does not exist\");\n    Ticket storage ticket = tickets[ticketIdIndex[_tId].index];\n    // find the airline\n    require(airlineIdIndex[ticket.aId].exists, \"Airline does not exist anymore\");\n    Airline storage airline = airlines[airlineIdIndex[ticket.aId].index];\n    // make sure the caller is the owner of the airline the ticket belongs to\n    require(airline.aOwner == msg.sender, \"Not the ticket owner\");\n    _;\n  }\n\n  /** We don't want to accept payments without booking a specific flight */\n  function () public payable {\n    revert(\"Plain payments not accepted\");\n  }\n\n  /**\n   * @notice Book a flight, which means buying the tickets this flight consists of.\n   * A direct flight has only one ticket, a one-stop flight has two tickets.\n   * Sufficient ETH must be provided with the transaction to cover the price of the tickets.\n   * Redundant ETH will be returned back to the sender.\n   * @param _tIds List of ticket IDs. If second item is zero, only one ticket will be bought.\n   */\n  function bookFlight(uint256[2] _tIds, string _firstName, string _lastName)\n    public\n    payable\n    whenNotPaused\n  {\n    // Find the first ticket, it is required\n    require(ticketIdIndex[_tIds[0]].exists, \"Ticket does not exist\");\n    Ticket storage ticket1 = tickets[ticketIdIndex[_tIds[0]].index];\n    // Find the airline that owns it\n    require(airlineIdIndex[ticket1.aId].exists, \"Airline does not exist\");\n    Airline storage airline1 = airlines[airlineIdIndex[ticket1.aId].index];\n    // Check the seats available\n    require(ticket1.tQuantity > 0, \"No seats available\");\n    // Check if there's enough ETH for the first ticket\n    require(msg.value >= ticket1.tPrice, \"Insufficient funds\");\n    uint256 ethLeft = msg.value - ticket1.tPrice;\n    if (_tIds[1] != 0) {\n      // Find the second ticket\n      require(ticketIdIndex[_tIds[1]].exists, \"Ticket does not exist\");\n      Ticket storage ticket2 = tickets[ticketIdIndex[_tIds[1]].index];\n      // Check if there's enough ETH for the second ticket too\n      require(ethLeft >= ticket2.tPrice, \"Insufficient funds\");\n      ethLeft -= ticket2.tPrice;\n      // Check the seats available\n      require(ticket2.tQuantity > 0, \"No seats available\");\n      // Find the second ticket's airline\n      require(airlineIdIndex[ticket2.aId].exists, \"Airline does not exist\");\n      Airline storage airline2 = airlines[airlineIdIndex[ticket2.aId].index];\n      // Reduce the number of seats available\n      ticket1.tQuantity--;\n      ticket2.tQuantity--;\n      // Save information about the purchase\n      uint256 purchaseId1 = purchaseIdLast.add(1);\n      purchaseIdLast = purchaseId1;\n      emit LogTicketPurchased(purchaseId1, msg.sender, airline1.aId, ticket1.tId, _firstName, _lastName);\n      uint256 purchaseId2 = purchaseIdLast.add(1);\n      purchaseIdLast = purchaseId2;\n      emit LogTicketPurchased(purchaseId2, msg.sender, airline2.aId, ticket2.tId, _firstName, _lastName);\n      // Send the money to the airline owners\n      airline1.aOwner.transfer(ticket1.tPrice);\n      airline2.aOwner.transfer(ticket2.tPrice);\n    } else {\n      // There is only one ticket to buy\n      // Reduce the number of seats available\n      ticket1.tQuantity--;\n      // Save information about the purchase\n      uint256 purchaseId = purchaseIdLast.add(1);\n      purchaseIdLast = purchaseId;\n      emit LogTicketPurchased(purchaseId, msg.sender, airline1.aId, ticket1.tId, _firstName, _lastName);\n      // Send the money to the airline owners\n      airline1.aOwner.transfer(ticket1.tPrice);\n    }\n    // Send back the change if there is anything left\n    if (ethLeft > 0) {\n      msg.sender.transfer(ethLeft);\n    }\n  }\n\n  /**\n   * @notice Check if the airline name is taken or not\n   * @dev Useful for input validation both in the contract and in the frontend\n   * @param _aName Name to check\n   * @return true if name exists, false otherwise\n   */\n  function airlineExists(bytes32 _aName) public view returns (bool) {\n    return airlineNameExists[_aName];\n  }\n\n  /**\n   * @notice Get the number of airlines stored\n   * @dev Use it in the frontend to iterate over airlines\n   * @return The number of airlines\n   */\n  function getAirlinesCount() public view returns (uint256) {\n    return airlines.length;\n  }\n\n  /**\n   * @notice Get a certain airline by its ID\n   * @param _aId ID of the airline\n   * @return Airline data\n   */\n  function getAirlineById(uint256 _aId) public view returns(\n    uint256 aId,\n    bytes32 aName,\n    address aOwner,\n    string aLogo\n  ) {\n    require(airlineIdIndex[_aId].exists, \"Airline does not exist\");\n    Airline storage airline = airlines[airlineIdIndex[_aId].index];\n    return (airline.aId, airline.aName, airline.aOwner, airline.aLogo);\n  }\n\n  /**\n   * @notice Get the number of tickets from a given airline\n   * @dev Use it in the frontend to iterate over tickets by airline\n   * @param _aId ID of the airline\n   * @return The number of tickets owned by the airline\n   */\n  function getTicketsCount(uint256 _aId) public view returns (uint256) {\n    require(airlineIdIndex[_aId].exists, \"Airline does not exist\");\n    return ticketsByAirline[_aId].length;\n  }\n\n  /**\n   * @notice Get a certain ticket by its ID\n   * @param _tId ID of the ticket\n   * @return Ticket data\n   */\n  function getTicketById(uint256 _tId)\n    public\n    view\n    returns(\n      uint256 tId,\n      uint256 aId,\n      bytes32 tFrom,\n      bytes32 tTo,\n      uint256 tPrice,\n      uint256 tQuantity,\n      uint256 tDeparture,\n      uint256 tArrival\n    )\n  {\n    require(ticketIdIndex[_tId].exists, \"Ticket does not exist\");\n    Ticket storage ticket = tickets[ticketIdIndex[_tId].index];\n    return (\n      ticket.tId,\n      ticket.aId,\n      ticket.tFrom,\n      ticket.tTo,\n      ticket.tPrice,\n      ticket.tQuantity,\n      ticket.tDeparture,\n      ticket.tArrival\n    );\n  }\n\n  /**\n   * @notice Get N-th ticket of a given airline\n   * @param _aId ID of the airline\n   * @param _index Index of the item to get (the N)\n   * @return Ticket data\n   */\n  function getTicketByAirline(uint256 _aId, uint256 _index)\n    public\n    view\n    returns (\n      uint256 tId,\n      uint256 aId,\n      bytes32 tFrom,\n      bytes32 tTo,\n      uint256 tPrice,\n      uint256 tQuantity,\n      uint256 tDeparture,\n      uint256 tArrival\n    )\n  {\n    uint256 _tId = ticketsByAirline[_aId][_index];\n    return getTicketById(_tId);\n  }\n\n  /**\n   * @notice Finds only direct flights between two cities\n   * @param _from From where\n   * @param _to To where\n   * @param _when Timestamp of the beginning of the day. It will search flights departing\n   * at any time from _when to _when+24h\n   * @return Fixed-sized array of ticket IDs. Returns maximum of 20 tickets.\n   * Zero value means no ticket. Check for zeroes when iterating over the result.\n   * result.length does not represent the number of tickets found!\n   */\n  function findDirectFlights(bytes32 _from, bytes32 _to, uint256 _when)\n    public\n    view\n    returns (uint256[20])\n  {\n    uint256[20] memory ticketsFound;\n    uint256 i = 0;\n    for (uint256 j = 0; j < tickets.length; j++) {\n      Ticket storage t = tickets[j];\n      if (\n        t.tFrom == _from &&\n        t.tTo == _to &&\n        t.tDeparture >= _when &&\n        t.tDeparture < _when + 24*60*60\n      ) {\n        ticketsFound[i++] = t.tId;\n        // When the resulting array is full, stop searching\n        if (i == ticketsFound.length) {\n          break;\n        }\n      }\n    }\n    return ticketsFound;\n  }\n\n  /**\n   * @notice Finds direct & indirect flights between two cities with one stop maximum\n   * @param _from From where\n   * @param _to To where\n   * @param _when Timestamp of the beginning of the day. It will search flights departing\n   * at any time from _when to _when+24h\n   * @return Fixed-sized array of pairs of ticket IDs. Each pair is a 2-elements array.\n   * If second ticket ID in a pair is zero, it is a direct flight (one ticket only).\n   * Otherwise it is an indirect flight represented by the first ticket ID and second ticket ID.\n   * Returns maximum of 20 flights. When both IDs in a pair are zero, it means no ticket.\n   * Check for zeroes when iterating over the result. Result.length does not represent\n   * the number of tickets found!\n   */\n  function findOneStopFlights(bytes32 _from, bytes32 _to, uint256 _when)\n    public\n    view\n    returns (uint256[2][20])\n  {\n    uint256[2][20] memory ticketsFound;\n    uint256 i = 0;\n    // Max array length of 1024 is set assuming that we won't use this with more than some\n    // thousands of tickets in the system, as for that we would need to heavily optimize the search\n    Ticket[1024] memory ticketsFrom;\n    uint256 j = 0;\n    Ticket[1024] memory ticketsTo;\n    uint256 k = 0;\n    // Scan through all existing tickets, saving direct flights and saving a list of flights\n    // that have either TO or FROM matching our search. They could be parts of an indirect flight.\n    for (uint256 l = 0; l < tickets.length; l++) {\n      Ticket storage t = tickets[l];\n      if (t.tFrom == _from && t.tDeparture >= _when && t.tDeparture < _when + 24*60*60) {\n        // FROM-matching flight found\n        ticketsFrom[j++] = t;\n        if (t.tTo == _to) {\n          // Direct flight found\n          ticketsFound[i++] = [t.tId, 0];\n        }\n      // It's fine if a connection flight is next day, thus the wider departure time condition\n      } else if (t.tTo == _to && t.tDeparture >= _when && t.tDeparture < _when + 2*24*60*60) {\n        // TO-matching flight found\n        ticketsTo[k++] = t;\n      }\n    }\n    // Scan through the saved FROM-matching flights and find where their TO matches with\n    // the FROM of a TO-matching flight from the second array. It means a one-stop flight found.\n    for (l = 0; l < ticketsFrom.length; l++) {\n      // It is a fixed-size array, so tickets end when we see zero instead of a ticket ID\n      if (ticketsFrom[l].tId == 0) {\n        break;\n      }\n      // More iterators mom. Oh yes, spread that shit all over...\n      for (uint256 m = 0; m < ticketsTo.length; m++) {\n        if (ticketsTo[m].tId == 0) {\n          break;\n        }\n        // Are these two flights connected? Also make sure the layover is no less than one hour\n        if (\n          ticketsTo[m].tFrom == ticketsFrom[l].tTo &&\n          ticketsTo[m].tDeparture > ticketsFrom[l].tArrival + 60*60\n        ) {\n          // One-stop flight found\n          ticketsFound[i++] = [ticketsFrom[l].tId, ticketsTo[m].tId];\n        }\n      }\n    }\n    return ticketsFound;\n  }\n\n  /**\n   * @notice Add an airline to the list\n   * @dev Use the emitted LogAirlineAdded event to get the new airline's generated ID\n   * @param _aName Name of the airline, must be unique (transaction will fail otherwise)\n   * @param _aOwner Address of the airline owner, can be any Ethereum address\n   */\n  function addAirline(bytes32 _aName, address _aOwner, string _aLogo) public onlyOwner whenNotPaused {\n    require(!airlineExists(_aName), \"Airline name is already taken\");\n    // generate new airline ID\n    uint256 _aId = aIdLast.add(1);\n    aIdLast = _aId;\n    // add a new Airline record to airlines array and save its index in the array\n    uint256 _index = airlines.push(Airline(_aId, _aName, _aOwner, _aLogo)) - 1;\n    airlineIdIndex[_aId].exists = true;\n    airlineIdIndex[_aId].index = _index;\n    // occupy the name\n    airlineNameExists[_aName] = true;\n    emit LogAirlineAdded(_aId, _aName, _aOwner, _aLogo);\n  }\n\n  /**\n   * @notice Change an existing airline\n   * @param _aId ID of the airline that is being changed (ID itself does not change)\n   * @param _newAName New name of the airline, must be unique or remain unchanged\n   * @param _newAOwner New owner of the airline\n   */\n  function editAirline(uint256 _aId, bytes32 _newAName, address _newAOwner, string _newALogo)\n    public\n    onlyOwner\n    whenNotPaused\n  {\n    require(airlineIdIndex[_aId].exists, \"Airline does not exist\");\n    // get index of the array element being changed\n    uint256 _index = airlineIdIndex[_aId].index;\n    // if the name has changed, check it's unique and save it\n    if (_newAName != airlines[_index].aName) {\n      require(!airlineExists(_newAName), \"New airline name is already taken\");\n      // free the old name, occupy the new one\n      airlineNameExists[airlines[_index].aName] = false;\n      airlineNameExists[_newAName] = true;\n      airlines[_index].aName = _newAName;\n    }\n    // simply update the owner and the logo\n    airlines[_index].aOwner = _newAOwner;\n    airlines[_index].aLogo = _newALogo;\n    emit LogAirlineUpdated(_aId, _newAName, _newAOwner, _newALogo);\n  }\n\n  /**\n   * @notice Remove an airline from the list\n   * @dev Removal operation changes the order of some items in airlines array, so don't rely\n   * on the order of the array, sort it yourself when you need it.\n   * @param _aId ID of the airline to remove\n   */\n  function removeAirline(uint256 _aId) public onlyOwner whenNotPaused {\n    require(airlineIdIndex[_aId].exists, \"Airline does not exist\");\n    // get index of the array element being removed\n    uint256 _index = airlineIdIndex[_aId].index;\n    // remove the airline and free its name\n    airlineIdIndex[_aId].exists = false;\n    airlineNameExists[airlines[_index].aName] = false;\n    if (airlines.length > 1) {\n      // the following trick is used to minimize the execution cost: instead of deleting the item\n      // and shifting every other item on the right of the deleted element (which would be expensive),\n      // we move the last element of the array in place of the removed one and only update its index\n      airlines[_index] = airlines[airlines.length-1];\n      // update its ID index to point to the new location\n      airlineIdIndex[airlines[_index].aId].index = _index;\n    }\n    // remove the last element of the array\n    airlines.length--;\n    emit LogAirlineRemoved(_aId);\n  }\n\n  /**\n   * @notice Add an ticket to the list\n   * @dev Use the emitted LogTicketAdded event to get the new ticket's generated ID\n   * @param _aId ID of the airline; the airline must be owned by the caller!\n   * @param _tFrom City from which the flight departs\n   * @param _tTo City to which the flight arrives\n   * @param _tPrice Price for the ticket in wei\n   * @param _tQuantity Number of seats available for this flight at this price\n   * @param _tDeparture Timestamp of the planned departure, UTC\n   * @param _tArrival Timestamp of the planned arrival, UTC\n   */\n  function addTicket(\n    uint256 _aId,\n    bytes32 _tFrom,\n    bytes32 _tTo,\n    uint256 _tPrice,\n    uint256 _tQuantity,\n    uint256 _tDeparture,\n    uint256 _tArrival\n  ) public onlyAirlineOwner(_aId) whenNotPaused {\n    // make sure departure & arrival times are valid\n    require(_tQuantity > 0, \"Quantity must be positive\");\n    // yes, we are using block time here, but we don't care about the 30-seconds\n    // variability, besides it's just a validation and not a crucial part of logic\n    require(_tDeparture > now, \"Departure time is in the past\");\n    require(_tArrival > _tDeparture, \"Arrival time is before departure\");\n    // generate new ticket ID\n    uint256 _tId = tIdLast.add(1);\n    tIdLast = _tId;\n    // add a new Ticket record to tickets array and save its index in the array\n    Ticket memory ticket = Ticket(\n      _tId,\n      _aId,\n      _tFrom,\n      _tTo,\n      _tPrice,\n      _tQuantity,\n      _tDeparture,\n      _tArrival\n    );\n    uint256 _index = tickets.push(ticket) - 1;\n    ticketIdIndex[_tId].exists = true;\n    ticketIdIndex[_tId].index = _index;\n    // add the ticket ID to the list of this airline's tickets\n    uint256 _index2 = ticketsByAirline[_aId].push(_tId) - 1;\n    // and save the index of this entry too, to be able to manage it later\n    ticketsByAirlineIndex[_aId][_tId].exists = true;\n    ticketsByAirlineIndex[_aId][_tId].index = _index2;\n    emit LogTicketAdded(\n      _tId,\n      _aId,\n      _tFrom,\n      _tTo,\n      _tPrice,\n      _tQuantity,\n      _tDeparture,\n      _tArrival\n    );\n  }\n\n  /**\n   * @notice Change an existing ticket\n   * @param _tId ID of the ticket that is being changed (ID itself does not change)\n   * @param _newTPrice New price of the ticket\n   * @param _newTQuantity New number of seats available\n   */\n  function editTicket(uint256 _tId, uint256 _newTPrice, uint256 _newTQuantity)\n    public\n    onlyTicketOwner(_tId)\n    whenNotPaused\n  {\n    // update the ticket data\n    uint256 _index = ticketIdIndex[_tId].index;\n    tickets[_index].tPrice = _newTPrice;\n    tickets[_index].tQuantity = _newTQuantity;\n    emit LogTicketUpdated(_tId, _newTPrice, _newTQuantity);\n  }\n\n  /**\n   * @notice Remove a ticket from the list\n   * @dev Removal operation changes the order of some items in tickets array, so don't rely\n   * on the order of the array, sort it yourself when you need it. It also changes the order\n   * of some items in the ticketsByAirline[aId] array, same thing.\n   *\n   * PS: You'll likely break your brain trying to grasp what's going on here,\n   * but I've done my best to make the code as understandable as possible.\n   * Thanks to the ease of maintaining complex data structures in Solidity :D\n   *\n   * @param _tId ID of the ticket to remove\n   */\n  function removeTicket(uint256 _tId) public onlyTicketOwner(_tId) whenNotPaused {\n    // save the ticket's airline ID for the later use\n    uint256 _aId = tickets[_index].aId;\n    // remove the ticket\n    ticketIdIndex[_tId].exists = false;\n    if (tickets.length > 1) {\n      // get index of the array element being removed\n      uint256 _index = ticketIdIndex[_tId].index;\n      // the same trick is used as in removeAirline():\n      // move the last element of the array in place of the removed one\n      tickets[_index] = tickets[tickets.length-1];\n      // update the ID index\n      ticketIdIndex[tickets[_index].tId].index = _index;\n    }\n    // remove ticket ID from the list of airline's tickets\n    ticketsByAirlineIndex[_aId][_tId].exists = false;\n    if (ticketsByAirline[_aId].length > 1) {\n      // same trick but the indexes are more complex (two-dimensional actually)\n      uint256 _index2 = ticketsByAirlineIndex[_aId][_tId].index;\n      // move last element of ticketsByAirline[_aId] array in place of the removed one\n      ticketsByAirline[_aId][_index2] = ticketsByAirline[_aId][ticketsByAirline[_aId].length-1];\n      // and update the relevant index\n      uint256 movedTicketId = ticketsByAirline[_aId][_index2];\n      ticketsByAirlineIndex[_aId][movedTicketId].index = _index2;\n    }\n    // remove the last element\n    ticketsByAirline[_aId].length--;\n    // remove the last element of the array\n    tickets.length--;\n    emit LogTicketRemoved(_tId);\n  }\n\n}\n",
  "sourcePath": "/Users/rafael/Documents/work/consensys/flight-tickets/contracts/FlightTickets.sol",
  "compiler": {
    "name": "solc",
    "version": "0.4.24+commit.e67f0147.Emscripten.clang"
  },
  "schemaVersion": "2.0.1",
  "updatedAt": "2018-08-06T16:41:39.351Z"
}